{"abi":[{"type":"constructor","inputs":[{"name":"_baseToken","type":"address","internalType":"address"}],"stateMutability":"nonpayable"},{"type":"function","name":"BASIS_POINTS","inputs":[],"outputs":[{"name":"","type":"uint256","internalType":"uint256"}],"stateMutability":"view"},{"type":"function","name":"FIXED_FEE","inputs":[],"outputs":[{"name":"","type":"uint256","internalType":"uint256"}],"stateMutability":"view"},{"type":"function","name":"HYSTERESIS","inputs":[],"outputs":[{"name":"","type":"uint256","internalType":"uint256"}],"stateMutability":"view"},{"type":"function","name":"INITIAL_PRICE","inputs":[],"outputs":[{"name":"","type":"uint256","internalType":"uint256"}],"stateMutability":"view"},{"type":"function","name":"INTEREST_RATE","inputs":[],"outputs":[{"name":"","type":"uint256","internalType":"uint256"}],"stateMutability":"view"},{"type":"function","name":"LIQUIDATION_PENALTY","inputs":[],"outputs":[{"name":"","type":"uint256","internalType":"uint256"}],"stateMutability":"view"},{"type":"function","name":"LP_REWARD_RATE","inputs":[],"outputs":[{"name":"","type":"uint256","internalType":"uint256"}],"stateMutability":"view"},{"type":"function","name":"LTV","inputs":[],"outputs":[{"name":"","type":"uint256","internalType":"uint256"}],"stateMutability":"view"},{"type":"function","name":"PROTOCOL_FEE_RATE","inputs":[],"outputs":[{"name":"","type":"uint256","internalType":"uint256"}],"stateMutability":"view"},{"type":"function","name":"baseToken","inputs":[],"outputs":[{"name":"","type":"address","internalType":"contract IERC20"}],"stateMutability":"view"},{"type":"function","name":"buyTokens","inputs":[{"name":"_opportunityId","type":"uint256","internalType":"uint256"},{"name":"_side","type":"bool","internalType":"bool"},{"name":"_amount","type":"uint256","internalType":"uint256"}],"outputs":[],"stateMutability":"nonpayable"},{"type":"function","name":"claimWinnings","inputs":[{"name":"_opportunityId","type":"uint256","internalType":"uint256"}],"outputs":[],"stateMutability":"nonpayable"},{"type":"function","name":"createOpportunity","inputs":[{"name":"_name","type":"string","internalType":"string"},{"name":"_metadataUrl","type":"string","internalType":"string"},{"name":"_initialLiquidity","type":"uint256","internalType":"uint256"}],"outputs":[],"stateMutability":"nonpayable"},{"type":"function","name":"createPositionChain","inputs":[{"name":"_opportunityId","type":"uint256","internalType":"uint256"},{"name":"_side","type":"bool","internalType":"bool"},{"name":"_amount","type":"uint256","internalType":"uint256"}],"outputs":[],"stateMutability":"nonpayable"},{"type":"function","name":"extendChain","inputs":[{"name":"_chainId","type":"uint256","internalType":"uint256"},{"name":"_opportunityId","type":"uint256","internalType":"uint256"},{"name":"_side","type":"bool","internalType":"bool"}],"outputs":[],"stateMutability":"nonpayable"},{"type":"function","name":"getChainHealthData","inputs":[{"name":"_chainId","type":"uint256","internalType":"uint256"}],"outputs":[{"name":"","type":"tuple","internalType":"struct SneakProtocol.ChainHealthData","components":[{"name":"chainId","type":"uint256","internalType":"uint256"},{"name":"owner","type":"address","internalType":"address"},{"name":"totalPositions","type":"uint256","internalType":"uint256"},{"name":"activePositions","type":"uint256","internalType":"uint256"},{"name":"liquidatedPositions","type":"uint256","internalType":"uint256"},{"name":"totalAllocated","type":"uint256","internalType":"uint256"},{"name":"currentTotalValue","type":"uint256","internalType":"uint256"},{"name":"totalDebt","type":"uint256","internalType":"uint256"},{"name":"healthFactor","type":"uint256","internalType":"uint256"},{"name":"isLiquidationRisk","type":"bool","internalType":"bool"},{"name":"isHighRisk","type":"bool","internalType":"bool"},{"name":"liquidationThreshold","type":"uint256","internalType":"uint256"}]}],"stateMutability":"view"},{"type":"function","name":"getChainRiskAnalysis","inputs":[{"name":"_chainId","type":"uint256","internalType":"uint256"}],"outputs":[{"name":"","type":"tuple[]","internalType":"struct SneakProtocol.PositionRiskData[]","components":[{"name":"positionIndex","type":"uint256","internalType":"uint256"},{"name":"opportunityId","type":"uint256","internalType":"uint256"},{"name":"side","type":"bool","internalType":"bool"},{"name":"allocatedAmount","type":"uint256","internalType":"uint256"},{"name":"currentValue","type":"uint256","internalType":"uint256"},{"name":"pnl","type":"uint256","internalType":"uint256"},{"name":"isActive","type":"bool","internalType":"bool"},{"name":"riskToNextPosition","type":"uint256","internalType":"uint256"},{"name":"isLiquidationTrigger","type":"bool","internalType":"bool"}]}],"stateMutability":"view"},{"type":"function","name":"getChainsAtRisk","inputs":[],"outputs":[{"name":"","type":"uint256[]","internalType":"uint256[]"}],"stateMutability":"view"},{"type":"function","name":"getCurrentPositionValue","inputs":[{"name":"_position","type":"tuple","internalType":"struct SneakProtocol.Position","components":[{"name":"opportunityId","type":"uint256","internalType":"uint256"},{"name":"side","type":"bool","internalType":"bool"},{"name":"amount","type":"uint256","internalType":"uint256"},{"name":"tokens","type":"uint256","internalType":"uint256"},{"name":"currentValue","type":"uint256","internalType":"uint256"},{"name":"active","type":"bool","internalType":"bool"}]}],"outputs":[{"name":"","type":"uint256","internalType":"uint256"}],"stateMutability":"view"},{"type":"function","name":"getLiquidationPreview","inputs":[{"name":"_chainId","type":"uint256","internalType":"uint256"}],"outputs":[{"name":"","type":"tuple","internalType":"struct SneakProtocol.LiquidationPreview","components":[{"name":"canLiquidate","type":"bool","internalType":"bool"},{"name":"liquidationStartIndex","type":"uint256","internalType":"uint256"},{"name":"positionsToLiquidate","type":"uint256","internalType":"uint256"},{"name":"collateralShortfall","type":"uint256","internalType":"uint256"},{"name":"liquidationPenalty","type":"uint256","internalType":"uint256"},{"name":"remainingValue","type":"uint256","internalType":"uint256"}]}],"stateMutability":"view"},{"type":"function","name":"getOpportunity","inputs":[{"name":"_opportunityId","type":"uint256","internalType":"uint256"}],"outputs":[{"name":"","type":"tuple","internalType":"struct SneakProtocol.Opportunity","components":[{"name":"id","type":"uint256","internalType":"uint256"},{"name":"name","type":"string","internalType":"string"},{"name":"metadataUrl","type":"string","internalType":"string"},{"name":"liquidityYes","type":"uint256","internalType":"uint256"},{"name":"liquidityNo","type":"uint256","internalType":"uint256"},{"name":"priceYes","type":"uint256","internalType":"uint256"},{"name":"priceNo","type":"uint256","internalType":"uint256"},{"name":"creator","type":"address","internalType":"address"},{"name":"resolved","type":"bool","internalType":"bool"},{"name":"outcome","type":"bool","internalType":"bool"},{"name":"totalYesTokens","type":"uint256","internalType":"uint256"},{"name":"totalNoTokens","type":"uint256","internalType":"uint256"},{"name":"creationTime","type":"uint256","internalType":"uint256"}]}],"stateMutability":"view"},{"type":"function","name":"getOpportunityRiskData","inputs":[{"name":"_opportunityId","type":"uint256","internalType":"uint256"}],"outputs":[{"name":"","type":"tuple","internalType":"struct SneakProtocol.OpportunityRiskData","components":[{"name":"opportunityId","type":"uint256","internalType":"uint256"},{"name":"name","type":"string","internalType":"string"},{"name":"priceYes","type":"uint256","internalType":"uint256"},{"name":"priceNo","type":"uint256","internalType":"uint256"},{"name":"priceDeviation","type":"uint256","internalType":"uint256"},{"name":"liquidityImbalance","type":"uint256","internalType":"uint256"},{"name":"volatilityRisk","type":"uint256","internalType":"uint256"},{"name":"isHighRisk","type":"bool","internalType":"bool"},{"name":"totalLiquidity","type":"uint256","internalType":"uint256"}]}],"stateMutability":"view"},{"type":"function","name":"getPositionChain","inputs":[{"name":"_chainId","type":"uint256","internalType":"uint256"}],"outputs":[{"name":"","type":"tuple","internalType":"struct SneakProtocol.PositionChain","components":[{"name":"chainId","type":"uint256","internalType":"uint256"},{"name":"owner","type":"address","internalType":"address"},{"name":"positions","type":"tuple[]","internalType":"struct SneakProtocol.Position[]","components":[{"name":"opportunityId","type":"uint256","internalType":"uint256"},{"name":"side","type":"bool","internalType":"bool"},{"name":"amount","type":"uint256","internalType":"uint256"},{"name":"tokens","type":"uint256","internalType":"uint256"},{"name":"currentValue","type":"uint256","internalType":"uint256"},{"name":"active","type":"bool","internalType":"bool"}]},{"name":"totalDebt","type":"uint256","internalType":"uint256"},{"name":"liquidated","type":"bool","internalType":"bool"}]}],"stateMutability":"view"},{"type":"function","name":"getUserChains","inputs":[{"name":"_user","type":"address","internalType":"address"}],"outputs":[{"name":"","type":"uint256[]","internalType":"uint256[]"}],"stateMutability":"view"},{"type":"function","name":"getUserTokens","inputs":[{"name":"_opportunityId","type":"uint256","internalType":"uint256"},{"name":"_side","type":"bool","internalType":"bool"},{"name":"_user","type":"address","internalType":"address"}],"outputs":[{"name":"","type":"uint256","internalType":"uint256"}],"stateMutability":"view"},{"type":"function","name":"liquidateChain","inputs":[{"name":"_chainId","type":"uint256","internalType":"uint256"}],"outputs":[],"stateMutability":"nonpayable"},{"type":"function","name":"nextChainId","inputs":[],"outputs":[{"name":"","type":"uint256","internalType":"uint256"}],"stateMutability":"view"},{"type":"function","name":"nextOpportunityId","inputs":[],"outputs":[{"name":"","type":"uint256","internalType":"uint256"}],"stateMutability":"view"},{"type":"function","name":"opportunities","inputs":[{"name":"","type":"uint256","internalType":"uint256"}],"outputs":[{"name":"id","type":"uint256","internalType":"uint256"},{"name":"name","type":"string","internalType":"string"},{"name":"metadataUrl","type":"string","internalType":"string"},{"name":"liquidityYes","type":"uint256","internalType":"uint256"},{"name":"liquidityNo","type":"uint256","internalType":"uint256"},{"name":"priceYes","type":"uint256","internalType":"uint256"},{"name":"priceNo","type":"uint256","internalType":"uint256"},{"name":"creator","type":"address","internalType":"address"},{"name":"resolved","type":"bool","internalType":"bool"},{"name":"outcome","type":"bool","internalType":"bool"},{"name":"totalYesTokens","type":"uint256","internalType":"uint256"},{"name":"totalNoTokens","type":"uint256","internalType":"uint256"},{"name":"creationTime","type":"uint256","internalType":"uint256"}],"stateMutability":"view"},{"type":"function","name":"owner","inputs":[],"outputs":[{"name":"","type":"address","internalType":"address"}],"stateMutability":"view"},{"type":"function","name":"positionChains","inputs":[{"name":"","type":"uint256","internalType":"uint256"}],"outputs":[{"name":"chainId","type":"uint256","internalType":"uint256"},{"name":"owner","type":"address","internalType":"address"},{"name":"totalDebt","type":"uint256","internalType":"uint256"},{"name":"liquidated","type":"bool","internalType":"bool"}],"stateMutability":"view"},{"type":"function","name":"protocolFees","inputs":[{"name":"","type":"address","internalType":"address"}],"outputs":[{"name":"","type":"uint256","internalType":"uint256"}],"stateMutability":"view"},{"type":"function","name":"renounceOwnership","inputs":[],"outputs":[],"stateMutability":"nonpayable"},{"type":"function","name":"resolveOpportunity","inputs":[{"name":"_opportunityId","type":"uint256","internalType":"uint256"},{"name":"_outcome","type":"bool","internalType":"bool"}],"outputs":[],"stateMutability":"nonpayable"},{"type":"function","name":"transferOwnership","inputs":[{"name":"newOwner","type":"address","internalType":"address"}],"outputs":[],"stateMutability":"nonpayable"},{"type":"function","name":"userChains","inputs":[{"name":"","type":"address","internalType":"address"},{"name":"","type":"uint256","internalType":"uint256"}],"outputs":[{"name":"","type":"uint256","internalType":"uint256"}],"stateMutability":"view"},{"type":"function","name":"userTokens","inputs":[{"name":"","type":"uint256","internalType":"uint256"},{"name":"","type":"bool","internalType":"bool"},{"name":"","type":"address","internalType":"address"}],"outputs":[{"name":"","type":"uint256","internalType":"uint256"}],"stateMutability":"view"},{"type":"function","name":"withdrawProtocolFees","inputs":[{"name":"_token","type":"address","internalType":"address"}],"outputs":[],"stateMutability":"nonpayable"},{"type":"event","name":"ChainCreated","inputs":[{"name":"chainId","type":"uint256","indexed":true,"internalType":"uint256"},{"name":"owner","type":"address","indexed":true,"internalType":"address"}],"anonymous":false},{"type":"event","name":"ChainExtended","inputs":[{"name":"chainId","type":"uint256","indexed":true,"internalType":"uint256"},{"name":"opportunityId","type":"uint256","indexed":false,"internalType":"uint256"},{"name":"side","type":"bool","indexed":false,"internalType":"bool"},{"name":"amount","type":"uint256","indexed":false,"internalType":"uint256"}],"anonymous":false},{"type":"event","name":"ChainLiquidated","inputs":[{"name":"chainId","type":"uint256","indexed":true,"internalType":"uint256"},{"name":"startIndex","type":"uint256","indexed":false,"internalType":"uint256"}],"anonymous":false},{"type":"event","name":"OpportunityCreated","inputs":[{"name":"opportunityId","type":"uint256","indexed":true,"internalType":"uint256"},{"name":"name","type":"string","indexed":false,"internalType":"string"},{"name":"imageUrl","type":"string","indexed":false,"internalType":"string"},{"name":"initialLiquidity","type":"uint256","indexed":false,"internalType":"uint256"}],"anonymous":false},{"type":"event","name":"OpportunityResolved","inputs":[{"name":"opportunityId","type":"uint256","indexed":true,"internalType":"uint256"},{"name":"outcome","type":"bool","indexed":false,"internalType":"bool"}],"anonymous":false},{"type":"event","name":"OwnershipTransferred","inputs":[{"name":"previousOwner","type":"address","indexed":true,"internalType":"address"},{"name":"newOwner","type":"address","indexed":true,"internalType":"address"}],"anonymous":false},{"type":"event","name":"TokensPurchased","inputs":[{"name":"opportunityId","type":"uint256","indexed":true,"internalType":"uint256"},{"name":"user","type":"address","indexed":true,"internalType":"address"},{"name":"side","type":"bool","indexed":false,"internalType":"bool"},{"name":"amount","type":"uint256","indexed":false,"internalType":"uint256"},{"name":"tokens","type":"uint256","indexed":false,"internalType":"uint256"}],"anonymous":false},{"type":"error","name":"OwnableInvalidOwner","inputs":[{"name":"owner","type":"address","internalType":"address"}]},{"type":"error","name":"OwnableUnauthorizedAccount","inputs":[{"name":"account","type":"address","internalType":"address"}]},{"type":"error","name":"ReentrancyGuardReentrantCall","inputs":[]}],"bytecode":{"object":"0x60a0346100f457601f6135d338819003918201601f19168301916001600160401b038311848410176100f8578084926020946040528339810103126100f457516001600160a01b038116908190036100f45733156100e1575f8054336001600160a01b0319821681178355604051939290916001600160a01b0316907f8be0079c531659141344cd1fd0a4f28419497f9722a3daafe3b4186f6b6457e09080a360018055600160025560016003556080526134c6908161010d823960805181818161026e01528181610b17015281816112930152818161181d0152611e6d0152f35b631e4fbdf760e01b5f525f60045260245ffd5b5f80fd5b634e487b7160e01b5f52604160045260245ffdfe60806040526004361015610011575f80fd5b5f3560e01c806310f0dde41461292057806323d1b06c146128fe5780632d80caa51461284e578063324661ce146126cf5780634291fe701461240c5780634f62abd5146123b4578063598debc9146120f65780635aff544e1461208a5780635b72a33a1461207057806362965d8e14612054578063677bd9ff14611d3e5780636a932462146117895780636f990b0214611499578063715018a6146114425780637c5e279514611420578063803b73d7146112065780638da5cb5b146111df57806395adf2bb146110f35780639b8621d5146110d75780639ce3905914610eef5780639f07ae4314610ba1578063acd6c98f14610e04578063b348baa814610de8578063c1a9178c14610be4578063c32193a714610ba1578063c519529d14610b46578063c55dae6314610b02578063c715a10814610aa9578063cbf8b3ff14610a8c578063cc64079e14610a0a578063dcf844a7146109d2578063e1f1c4a7146109b6578063e3b6314c14610693578063f11b175014610501578063f2fde38b1461047c578063f2fed0fd146101e1578063f9efcc01146101dc5763fcfb8bb2146101bb575f80fd5b346101d8575f3660031901126101d8576020600254604051908152f35b5f80fd5b612920565b346101d8576101ef36612abe565b6101fa929192613388565b815f52600460205261021160405f20541515612d90565b815f52600460205261023060ff600760405f20015460a01c1615612ddc565b80159061023d8215613106565b6040516323b872dd60e01b8152336004820152306024820152604481018290526020816064815f6001600160a01b037f0000000000000000000000000000000000000000000000000000000000000000165af18015610471576102a7915f91610442575b50612c04565b825f52600460205260405f20845f146103ce576127108202928284046127101417156103ba57806005600892016103106102e382548097612d50565b9561030a8661030460038701936102fb838654612d00565b80955584612d3d565b92612c42565b90612d50565b600483015490610333600685019261030a8861032d865484612d3d565b92612d00565b92555501610342838254612d00565b90555b825f52600760205260405f2093151593845f5260205260405f2060018060a01b0333165f5260205260405f2061037c838254612d00565b9055604051938452602084015260408301527fb75b4b531f0cbabceded9cb5a5d344f89aea2b1faf8213a33c2cfef653c8c64b60603393a360018055005b634e487b7160e01b5f52601160045260245ffd5b6127108202928284046127101417156103ba578060066009920161040f6103f782548097612d50565b9561030a8661030460048701936102fb838654612d00565b60038301549061042c600585019261030a8861032d865484612d3d565b9255550161043b838254612d00565b9055610345565b610464915060203d60201161046a575b61045c8183612a4c565b810190612bec565b866102a1565b503d610452565b6040513d5f823e3d90fd5b346101d85760203660031901126101d85761049561293b565b61049d613362565b6001600160a01b031680156104ee575f80546001600160a01b03198116831782556001600160a01b0316907f8be0079c531659141344cd1fd0a4f28419497f9722a3daafe3b4186f6b6457e09080a3005b631e4fbdf760e01b5f525f60045260245ffd5b346101d85760203660031901126101d8575f6080604051610521816129f9565b8281528260208201526060604082015282606082015201526004355f52600560205260405f2060405190610554826129f9565b8054825260018101546001600160a01b03166020830190815260028201805491929161057f81612c4f565b9161058d6040519384612a4c565b81835260208301905f5260205f205f915b83831061067557505050506040840190815260ff60046003840154936060870194855201541690608085019115158252604051936020855260c085019551602086015260018060a01b039051166040850152519160a060608501528251809552602060e0850193015f955b80871061062757505083945051608084015251151560a08301520390f35b9093602060c060019260a0885180518352848101511515858401526040810151604084015260608101516060840152608081015160808401520151151560a082015201950196019590610609565b6006602060019261068585612cb1565b81520192019201919061059e565b346101d85760203660031901126101d8576004355f52600560205260405f20604051906106bf826129f9565b8054825260018101546001600160a01b0316602083015260028101805490926106e782612c4f565b916106f56040519384612a4c565b80835260208301945f5260205f20945f905b828210610998576040840185815260038701546060860152600487015460ff1615156080860152855161073b901515612ebc565b80515161074781612c4f565b906107556040519283612a4c565b808252610764601f1991612c4f565b015f5b81811061094a5750505f5b825180518210156108a9578161078791612d6e565b519061079282612eff565b91604081019283518082115f146108a1576107ad9082612c42565b935b5f905f928851515f1981019081116103ba578610610837575b9560019685519560a0602082015115159451910151151593604051976107ed89612a30565b898952602089015260408801526060870152608086015260a085015260c084015260e083015215156101008201526108258285612d6e565b526108308184612d6e565b5001610772565b9195885160018701908188116103ba5760409161085391612d6e565b51015196674563918244f4000088018098116103ba57612710610877600199612d0d565b049081851115610896575061088c9084612c42565b925b9096506107c8565b93945050869361088e565b505f936107af565b826040518091602082016020835281518091526020604084019201905f5b8181106108d5575050500390f35b9193509160206101206001926101008751805183528481015185840152604081015115156040840152606081015160608401526080810151608084015260a081015160a084015260c0810151151560c084015260e081015160e0840152015115156101008201520194019101918493926108c7565b60209060405161095981612a30565b5f81525f838201525f60408201525f60608201525f60808201525f60a08201525f60c08201525f60e08201525f61010082015282828601015201610767565b600660206001926109a88a612cb1565b815201970191019095610707565b346101d8575f3660031901126101d85760206040516127108152f35b346101d85760203660031901126101d8576001600160a01b036109f361293b565b165f526008602052602060405f2054604051908152f35b346101d85760203660031901126101d8576001600160a01b03610a2b61293b565b165f52600660205260405f206040519081602082549182815201915f5260205f20905f5b818110610a7657610a7285610a6681870382612a4c565b60405191829182612951565b0390f35b8254845260209093019260019283019201610a4f565b346101d8575f3660031901126101d8576020600354604051908152f35b346101d85760203660031901126101d8576004355f526005602052608060405f2080549060018060a01b036001820154169060ff6004600383015492015416916040519384526020840152604083015215156060820152f35b346101d8575f3660031901126101d8576040517f00000000000000000000000000000000000000000000000000000000000000006001600160a01b03168152602090f35b346101d85760203660031901126101d85760c0610b64600435613152565b60a06040519180511515835260208101516020840152604081015160408401526060810151606084015260808101516080840152015160a0820152f35b346101d857610baf36612ae1565b915f52600760205260405f209015155f5260205260405f209060018060a01b03165f52602052602060405f2054604051908152f35b346101d85760203660031901126101d857600435610c00613388565b805f52600560205260405f2060ff600482015416610da357600281019182546001811115610d5f575f905f9060015b818110610cf1575b505015610ca057805b8454811015610c6857806005610c5860019388612c98565b5001805460ff1916905501610c40565b5060207fd1e83894b8947f327a163627238758fad4458faffa9b5e464492efd1ffe3f465915f6003860155604051908152a260018055005b60405162461bcd60e51b8152602060048201526024808201527f436861696e2069732073756666696369656e746c7920636f6c6c61746572616c6044820152631a5e995960e21b6064820152608490fd5b5f1981018181116103ba57610d12610d0c610d17928a612c98565b50612cb1565b612eff565b6002610d23838a612c98565b500154674563918244f4000081018091116103ba57610d4461271091612d25565b0411610d5257600101610c2f565b9250505060018580610c37565b606460405162461bcd60e51b815260206004820152602060248201527f43616e6e6f74206c69717569646174652073696e676c6520706f736974696f6e6044820152fd5b60405162461bcd60e51b815260206004820152601860248201527f436861696e20616c7265616479206c69717569646174656400000000000000006044820152606490fd5b346101d8575f3660031901126101d85760206040516101908152f35b346101d85760203660031901126101d8576004355f5260046020526101a060405f20805490610e3560018201612b4c565b610e4160028301612b4c565b9160038101549260ff60048301546005840154600685015490600786015492610e9c600888015496610e8e600a60098b01549a01549a6040519e8f9e8f9081528160208201520190612a9a565b8c810360408e015290612a9a565b9860608b015260808a015260a089015260c088015260018060a01b03811660e0880152818160a01c16151561010088015260a81c1615156101208601526101408501526101608401526101808301520390f35b346101d85760203660031901126101d857604051610f0c81612a14565b5f815260208101606090526040810160609052606081015f9052608081015f905260a081015f905260c081015f905260e081015f905261010081015f905261012081015f905261014081015f905261016081015f9052610180015f90526004355f52600460205260405f20604051610f8381612a14565b81548152610f9360018301612b4c565b6020820190815291610fa760028201612b4c565b6040830190815260038201549160608401928352600481015460808501908152600582015460a0860190815260068301549060c0870191825260078401549160e0880190600160a01b60019003841682526101008901928460a01c60ff16151584526101208a019460a81c60ff16151585526008870154956101408b019687526009880154976101608c01988952600a0154986101808c01998a526040519c8d809d602082525190602001525160408d016101a090526101c08d0161106b91612a9a565b90518c8203601f190160608e01526110839190612a9a565b995160808c01525160a08b01525160c08a01525160e0890152516001600160a01b03166101008801525115156101208701525115156101408601525161016085015251610180840152516101a08301520390f35b346101d8575f3660031901126101d85760206040516101f48152f35b346101d85760403660031901126101d85760043561110f61298a565b611117613362565b815f52600460205261112e60405f20541515612d90565b815f52600460205260ff600760405f20015460a01c166111a7575f828152600460209081526040909120600701805461ffff60a01b191683151560a81b60ff60a81b1617600160a01b1790557fbef7269f91482476b751fe006d678689aa5d62e20f492f98ed207b2c988f0173916040519015158152a2005b60405162461bcd60e51b815260206004820152601060248201526f105b1c9958591e481c995cdbdb1d995960821b6044820152606490fd5b346101d8575f3660031901126101d8575f546040516001600160a01b039091168152602090f35b346101d85761121436612abe565b61121f929192613388565b815f52600460205261123660405f20541515612d90565b815f52600460205261125560ff600760405f20015460a01c1615612ddc565b8015906112628215613106565b6040516323b872dd60e01b8152336004820152306024820152604481018290526020816064815f6001600160a01b037f0000000000000000000000000000000000000000000000000000000000000000165af18015610471576112cb915f916104425750612c04565b6112d68185856133a8565b6003545f8181526005602052604090209081556001810180546001600160a01b0319163317905560048101805460ff191690556127108083029391929182850490911417156103ba5761137a94611346600294825f1461140a57865f526004602052600560405f20015490612d50565b9060405195611354876129c2565b86521515602086015281604086015260608501526080840152600160a084015201612e28565b335f52600660205260405f20600354908054600160401b8110156113f6576113a791600182018155612999565b819291549060031b91821b915f19901b19161790556113ed60035433817f4d87d033ee033e64f8a5115087deed8c8660cfac19a3192047c951b5e697169c5f80a3612d82565b60035560018055005b634e487b7160e01b5f52604160045260245ffd5b865f526004602052600660405f20015490612d50565b346101d8575f3660031901126101d85760206040516706f05b59d3b200008152f35b346101d8575f3660031901126101d85761145a613362565b5f80546001600160a01b0319811682556001600160a01b03167f8be0079c531659141344cd1fd0a4f28419497f9722a3daafe3b4186f6b6457e08280a3005b346101d85760203660031901126101d8576004355f6101006040516114bd81612a30565b828152606060208201528260408201528260608201528260808201528260a08201528260c08201528260e08201520152805f52600460205260405f20906040519161150783612a14565b8054835261151760018201612b4c565b6020840190815261152a60028301612b4c565b6040850152600382015490606085019182526004830154608086019081526115bc60058501549660a08101978852600a60068701549660c0830197885260ff600782015460018060a01b03811660e0860152818160a01c16151561010086015260a81c161515610120840152600881015461014084015260098101546101608401520154610180820152511515612d90565b855184518091115f1461172e575085516706f05b59d3b20000811115611700575085516706f05b59d3b1ffff1981019081116103ba575b915b8351825190818111156116f15750506116118451835190612c42565b905b5196519451936064840292848404606414851517156103ba576116399151905190612d00565b936040519661164788612a30565b8752602087019788526040870195865260608701908152608087019084825260a088019283526706f05b59d3b2000060c0890194048452670214e8348c4f000060e089019511855261010088019586526116be604051998a9960208b525160208b01525161012060408b01526101408a0190612a9a565b965160608901525160808801525160a08701525160c08601525160e0850152511515610100840152516101208301520390f35b6116fa91612c42565b90611613565b6706f05b59d3b20000036706f05b59d3b200008111156115f357634e487b7160e01b5f52601160045260245ffd5b6706f05b59d3b2000081111561175b575083516706f05b59d3b1ffff1981019081116103ba575b916115f5565b6706f05b59d3b20000036706f05b59d3b2000081111561175557634e487b7160e01b5f52601160045260245ffd5b346101d85760603660031901126101d8576004356001600160401b0381116101d8576117b9903690600401612a6d565b906024356001600160401b0381116101d8576117d9903690600401612a6d565b90916117e3613388565b60443515611cee576040516323b872dd60e01b815233600482015230602482015260448035908201526020816064815f6001600160a01b037f0000000000000000000000000000000000000000000000000000000000000000165af1801561047157611855915f916104425750612c04565b60443560011c9360025461271086029086820461271014871517156103ba576040519661188188612a14565b81885261188f3685876130a1565b91602089019283526118a236888a6130a1565b9160408a019283528060608b015260808a01526706f05b59d3b2000060a08a01526706f05b59d3b2000060c08a01523360e08a01525f6101008a01525f6101208a01526706f05b59d3b2000084046101408a01526706f05b59d3b2000084046101608a0152426101808a01525f52600460205260405f2091885183556001830190518051906001600160401b0382116113f65781906119418454612b14565b601f8111611c9e575b50602090601f8311600114611c3b575f92611c30575b50508160011b915f199060031b1c19161790555b519687516001600160401b0381116113f6576119936002840154612b14565b601f8111611be8575b506020601f8211600114611b50577ffa9a0a62b8dba98916a85fe2be98baf1f283a2e2d643be30e5b0062f8444cbb1969594939282600a9361018093611b3c9d5f92611b45575b50508160011b915f199060031b1c19161760028501555b606081015160038501556080810151600485015560a080820151600586015560c0820151600686015560e082015160078601805461010085015161012086015160ff60a81b90151560a81b1660ff60a01b91151590951b166001600160a01b039093166001600160b01b031990911617919091179190911790556101408101516008850155610160810151600985015501519101556002545f52600760205260405f2060015f5260205260405f2060018060a01b0333165f5260205260405f206706f05b59d3b20000820490556002545f52600760205260405f205f805260205260405f2060018060a01b0333165f526020526706f05b59d3b2000060405f2091049055611b2c600254958695611b1e6040519586956060875260608701916130e6565b9184830360208601526130e6565b60443560408301520390a2612d82565b60025560018055005b015190508d806119e3565b600284015f52805f20995f5b601f1984168110611bd0575092600183611b3c9c610180947ffa9a0a62b8dba98916a85fe2be98baf1f283a2e2d643be30e5b0062f8444cbb19b9a999897600a97601f19811610611bb8575b505050811b0160028501556119fa565b01515f1960f88460031b161c191690558d8080611ba8565b828201518c556001909b019a60209283019201611b5c565b600284015f5260205f20601f830160051c81019160208410611c26575b601f0160051c01905b818110611c1b575061199c565b5f8155600101611c0e565b9091508190611c05565b015190508b80611960565b5f8581528281209350601f198516905b818110611c865750908460019594939210611c6e575b505050811b019055611974565b01515f1960f88460031b161c191690558b8080611c61565b92936020600181928786015181550195019301611c4b565b909150835f5260205f20601f840160051c81019160208510611ce4575b90601f859493920160051c01905b818110611cd6575061194a565b5f8155849350600101611cc9565b9091508190611cbb565b60405162461bcd60e51b815260206004820152602260248201527f496e697469616c206c6971756964697479206d75737420626520706f73697469604482015261766560f01b6064820152608490fd5b346101d85760203660031901126101d857600435611d5a613388565b805f52600460205260ff600760405f20015460a01c161561200f57805f52600460205260405f2090600782019060ff825460a81c16815f52600760205260405f2081151590815f5260205260405f2060018060a01b0333165f5260205260405f2054928315611fd5575f90815260076020908152604080832093835292815282822033835290529081205515611fc757611e046008840154935b6004600382015491015490612d00565b610190810291811592828104610190148417156103ba57612710900492606483029083820460641417156103ba57611ecd95611e5f602093611e598796611e54612710611e649704988992612c42565b612c42565b90612d3d565b612d50565b60018060a01b037f00000000000000000000000000000000000000000000000000000000000000001692835f5260088352611ea460405f20918254612d00565b905560405163a9059cbb60e01b8152336004820152602481019190915294859081906044820190565b03815f855af192831561047157611ef0602094611f28965f91611faa5750612c04565b5460405163a9059cbb60e01b81526001600160a01b0390911660048201526024810192909252909283919082905f9082906044820190565b03925af1908115610471575f91611f8b575b5015611f465760018055005b60405162461bcd60e51b815260206004820152601960248201527f4c5020726577617264207472616e73666572206661696c6564000000000000006044820152606490fd5b611fa4915060203d60201161046a5761045c8183612a4c565b81611f3a565b611fc19150863d881161046a5761045c8183612a4c565b876102a1565b611e04600984015493611df4565b60405162461bcd60e51b81526020600482015260126024820152714e6f20746f6b656e7320746f20636c61696d60701b6044820152606490fd5b60405162461bcd60e51b815260206004820152601860248201527f4f70706f7274756e697479206e6f74207265736f6c76656400000000000000006044820152606490fd5b346101d8575f3660031901126101d85760206040516117708152f35b346101d8575f3660031901126101d85760206040515f8152f35b346101d85760c03660031901126101d8576040516120a7816129c2565b60043581526120b461298a565b602082015260443560408201526064356060820152608435608082015260a43580151581036101d857816120ee9160a06020940152612eff565b604051908152f35b346101d85760203660031901126101d8576004355f61016060405161211a816129dd565b8281528260208201528260408201528260608201528260808201528260a08201528260c08201528260e08201528261010082015282610120820152826101408201520152805f52600560205260405f2060405191612177836129f9565b8154835260018201546001600160a01b03166020840190815260028301805461219f81612c4f565b916121ad6040519384612a4c565b81835260208301905f5260205f205f915b83831061239657505050506121f8906040860195818752608060ff600460038901549860608501998a520154161515910152511515612ebc565b5f5f945f935f935f955b8351805188101561226e5761223c61222c61221f8a60a094612d6e565b5197604089015190612d00565b9a61223688612eff565b90612d00565b9501511561225b5761224f600191612d82565b965b0195979397612202565b9594612268600191612d82565b95612251565b508751859487928a928c90156123885761271081029781890461271014821517156103ba576122a261018099865190612d50565b955b6127106122b18751612d0d565b049760018060a01b03905116945151955193604051966122d0886129dd565b8a88526020880196875260408801908152606088019182526080880192835260a0880193845260c0880194855260e088019586526101008801968988526101606101208a0199612ee08c108b52613a9861014082019c108c52019a8b526040519b8c5260018060a01b0390511660208c01525160408b01525160608a01525160808901525160a08801525160c08701525160e08601525161010085015251151561012084015251151561014083015251610160820152f35b61018097620186a0956122a4565b600660206001926123a685612cb1565b8152019201920191906121be565b346101d85760403660031901126101d8576123cd61293b565b6001600160a01b03165f908152600660205260409020805460243591908210156101d8576020916123fd91612999565b90549060031b1c604051908152f35b346101d85760603660031901126101d857600435602435604435801515918282036101d857612439613388565b5f848152600560205260409020600101546001600160a01b0316330361269857835f52600560205260ff600460405f2001541661265d57805f52600460205261248760405f20541515612d90565b805f5260046020526124a660ff600760405f20015460a01c1615612ddc565b835f52600560205260405f2060028101938454801561261f575f1981019081116103ba57610d12610d0c6124da9288612c98565b61177081029080820461177014901517156103ba576127109004674563918244f400008111156125da57674563918244f3ffff198101928184116103ba5760036125279101918254612d00565b90556125348285856133a8565b612710820282810461271014831517156103ba577fe55f27a79db304d6b94e0504ecb07046058a80eca69cea8846354f078fcee038956125906125c3926060975f1461140a57865f526004602052600560405f20015490612d50565b906040519161259e836129c2565b86835284602084015285604084015287830152846080830152600160a0830152612e28565b60405192835260208301526040820152a260018055005b60405162461bcd60e51b815260206004820152601f60248201527f496e73756666696369656e7420636f6c6c61746572616c20666f7220666565006044820152606490fd5b60405162461bcd60e51b8152602060048201526016602482015275436861696e20686173206e6f20706f736974696f6e7360501b6044820152606490fd5b60405162461bcd60e51b815260206004820152601360248201527210da185a5b881a5cc81b1a5c5d5a59185d1959606a1b6044820152606490fd5b60405162461bcd60e51b815260206004820152600f60248201526e2737ba1031b430b4b71037bbb732b960891b6044820152606490fd5b346101d8575f3660031901126101d8576003545f1981018181116103ba576126f690612c66565b905f9060015b81811061274557505061270e81612c66565b915f5b8281106127265760405180610a728682612951565b8061273360019284612d6e565b5161273e8287612d6e565b5201612711565b805f526005602052600260405f200154151580612834575b61276a575b6001016126fc565b90925f805b835f526005602052600260405f2001548210156127b2576127aa600191855f526005602052612236610d12610d0c86600260405f2001612c98565b91019061276f565b5f8481526005602052604090206003015492959392909150156128275761271081029080820461271014901517156103ba57612801612ee091835f526005602052600360405f20015490612d50565b1015612762579161281f818461281960019488612d6e565b52612d82565b929050612762565b50612ee0620186a0612801565b50805f52600560205260ff600460405f200154161561275d565b346101d85760203660031901126101d8576128c3602061286c61293b565b612874613362565b6001600160a01b039081165f81815260088085526040808320548484529186528083208390558254905163a9059cbb60e01b815294166004850152602484015291938492839182906044820190565b03925af18015610471576128dd915f916128df5750612c04565b005b6128f8915060203d60201161046a5761045c8183612a4c565b826102a1565b346101d8575f3660031901126101d8576020604051674563918244f400008152f35b346101d8575f3660031901126101d857602060405160648152f35b600435906001600160a01b03821682036101d857565b60206040818301928281528451809452019201905f5b8181106129745750505090565b8251845260209384019390920191600101612967565b6024359081151582036101d857565b80548210156129ae575f5260205f2001905f90565b634e487b7160e01b5f52603260045260245ffd5b60c081019081106001600160401b038211176113f657604052565b61018081019081106001600160401b038211176113f657604052565b60a081019081106001600160401b038211176113f657604052565b6101a081019081106001600160401b038211176113f657604052565b61012081019081106001600160401b038211176113f657604052565b90601f801991011681019081106001600160401b038211176113f657604052565b9181601f840112156101d8578235916001600160401b0383116101d857602083818601950101116101d857565b805180835260209291819084018484015e5f828201840152601f01601f1916010190565b60609060031901126101d8576004359060243580151581036101d8579060443590565b60609060031901126101d8576004359060243580151581036101d857906044356001600160a01b03811681036101d85790565b90600182811c92168015612b42575b6020831014612b2e57565b634e487b7160e01b5f52602260045260245ffd5b91607f1691612b23565b9060405191825f825492612b5f84612b14565b8084529360018116908115612bca5750600114612b86575b50612b8492500383612a4c565b565b90505f9291925260205f20905f915b818310612bae575050906020612b84928201015f612b77565b6020919350806001915483858901015201910190918492612b95565b905060209250612b8494915060ff191682840152151560051b8201015f612b77565b908160209103126101d8575180151581036101d85790565b15612c0b57565b60405162461bcd60e51b815260206004820152600f60248201526e151c985b9cd9995c8819985a5b1959608a1b6044820152606490fd5b919082039182116103ba57565b6001600160401b0381116113f65760051b60200190565b90612c7082612c4f565b612c7d6040519182612a4c565b8281528092612c8e601f1991612c4f565b0190602036910137565b80548210156129ae575f52600660205f20910201905f90565b90604051612cbe816129c2565b60a060ff600583958054855282600182015416151560208601526002810154604086015260038101546060860152600481015460808601520154161515910152565b919082018092116103ba57565b9061277482029180830461277414901517156103ba57565b906126ac8202918083046126ac14901517156103ba57565b818102929181159184041417156103ba57565b8115612d5a570490565b634e487b7160e01b5f52601260045260245ffd5b80518210156129ae5760209160051b010190565b5f1981146103ba5760010190565b15612d9757565b60405162461bcd60e51b815260206004820152601a60248201527f4f70706f7274756e69747920646f6573206e6f742065786973740000000000006044820152606490fd5b15612de357565b60405162461bcd60e51b815260206004820152601c60248201527f4f70706f7274756e69747920616c7265616479207265736f6c766564000000006044820152606490fd5b8054600160401b8110156113f657612e4591600182018155612c98565b612ea957600560a083612b8494518455612e7460208201511515600186019060ff801983541691151516179055565b6040810151600285015560608101516003850155608081015160048501550151151591019060ff801983541691151516179055565b634e487b7160e01b5f525f60045260245ffd5b15612ec357565b60405162461bcd60e51b815260206004820152601460248201527310da185a5b88191bd95cc81b9bdd08195e1a5cdd60621b6044820152606490fd5b60a08101511561309c5780515f52600460205260405f2060405190612f2382612a14565b80548252612f3360018201612b4c565b6020830152612f4460028201612b4c565b6040830152600381015491606081019283526004820154906080810191825260058301548060a08301526006840154908160c084015260078501549160018060a01b03831660e085015260ff8360a01c1615158061010086015260ff61012086019460a81c16151584526008870154946101408101958652610180600a60098a01549961016084019a8b5201549101525f14613068575050516020860151151593901515840361305e576130049315613055575051925b51905190612d00565b916101908302908315848304610190148117156103ba57606485029085820460641417156103ba5761304a611e5f93611e54613052976127108060609604930490612c42565b910151612d3d565b90565b90505192612ffb565b5050505050505f90565b60208801516127109861309098509650606095509193509150156130945750915b0151612d3d565b0490565b905091613089565b505f90565b9291926001600160401b0382116113f657604051916130ca601f8201601f191660200184612a4c565b8294818452818301116101d8578281602093845f960137010152565b908060209392818452848401375f828201840152601f01601f1916010190565b1561310d57565b60405162461bcd60e51b815260206004820152601760248201527f416d6f756e74206d75737420626520706f7369746976650000000000000000006044820152606490fd5b60405161315e816129c2565b5f81525f60208201525f60408201525f60608201525f60808201525f60a0820152505f52600560205260405f209060405191613199836129f9565b8054835260018101546001600160a01b0316602084015260028101805490936131c182612c4f565b916131cf6040519384612a4c565b80835260208301955f5260205f20955f905b8282106133445750505061321a92939450608060ff60046040840196858852600381015460608601520154161515910152511515612ebc565b60015b815180518210156132e1575f198201908282116103ba576132479161324191612d6e565b51612eff565b6040613254838551612d6e565b510151674563918244f4000081018091116103ba5761327561271091612d25565b0480821061328757505060010161321d565b909192826103048561329a935151612c42565b6101f48102908082046101f414811517156103ba5761271092604051956132c0876129c2565b6001875260208701526040860152606085015204608083015260a082015290565b5050905f905f915b8351805184101561330f576001916122366132418661330794612d6e565b9201916132e9565b509150915060405190613321826129c2565b5f82525f60208301525f60408301525f60608301525f608083015260a082015290565b600660206001926133548b612cb1565b8152019801910190966131e1565b5f546001600160a01b0316330361337557565b63118cdaa760e01b5f523360045260245ffd5b600260015414613399576002600155565b633ee5aeb560e01b5f5260045ffd5b5f52600460205260405f20905f1461342d5761271082029180830461271014811517156103ba578160089160056134299401906134026133ea83548098612d50565b9661030a8361030460038801936102fb838654612d00565b61341d600485015461030a600687019461032d865484612d3d565b92555501918254612d00565b9055565b61271082029180830461271014811517156103ba5781600991600661342994019061347561345d83548098612d50565b9661030a8361030460048801936102fb838654612d00565b61341d600385015461030a600587019461032d865484612d3d56fea2646970667358221220c98a6239f92b60b2fd95697aa4f368e2fcc9f97d140d1b714ae61a7208f3bf0c64736f6c634300081c0033","linkReferences":{}},"methodIdentifiers":{"BASIS_POINTS()":"e1f1c4a7","FIXED_FEE()":"23d1b06c","HYSTERESIS()":"f9efcc01","INITIAL_PRICE()":"7c5e2795","INTEREST_RATE()":"5b72a33a","LIQUIDATION_PENALTY()":"9b8621d5","LP_REWARD_RATE()":"b348baa8","LTV()":"62965d8e","PROTOCOL_FEE_RATE()":"10f0dde4","baseToken()":"c55dae63","buyTokens(uint256,bool,uint256)":"f2fed0fd","claimWinnings(uint256)":"677bd9ff","createOpportunity(string,string,uint256)":"6a932462","createPositionChain(uint256,bool,uint256)":"803b73d7","extendChain(uint256,uint256,bool)":"4291fe70","getChainHealthData(uint256)":"598debc9","getChainRiskAnalysis(uint256)":"e3b6314c","getChainsAtRisk()":"324661ce","getCurrentPositionValue((uint256,bool,uint256,uint256,uint256,bool))":"5aff544e","getLiquidationPreview(uint256)":"c519529d","getOpportunity(uint256)":"9ce39059","getOpportunityRiskData(uint256)":"6f990b02","getPositionChain(uint256)":"f11b1750","getUserChains(address)":"cc64079e","getUserTokens(uint256,bool,address)":"9f07ae43","liquidateChain(uint256)":"c1a9178c","nextChainId()":"cbf8b3ff","nextOpportunityId()":"fcfb8bb2","opportunities(uint256)":"acd6c98f","owner()":"8da5cb5b","positionChains(uint256)":"c715a108","protocolFees(address)":"dcf844a7","renounceOwnership()":"715018a6","resolveOpportunity(uint256,bool)":"95adf2bb","transferOwnership(address)":"f2fde38b","userChains(address,uint256)":"4f62abd5","userTokens(uint256,bool,address)":"c32193a7","withdrawProtocolFees(address)":"2d80caa5"},"id":4}