{"abi":[{"type":"function","name":"inc","inputs":[],"outputs":[],"stateMutability":"nonpayable"},{"type":"function","name":"incBy","inputs":[{"name":"by","type":"uint256","internalType":"uint256"}],"outputs":[],"stateMutability":"nonpayable"},{"type":"function","name":"x","inputs":[],"outputs":[{"name":"","type":"uint256","internalType":"uint256"}],"stateMutability":"view"},{"type":"event","name":"Increment","inputs":[{"name":"by","type":"uint256","indexed":false,"internalType":"uint256"}],"anonymous":false}],"bytecode":{"object":"0x60808060405234601557610197908161001a8239f35b5f80fdfe6080806040526004361015610012575f80fd5b5f3560e01c9081630c55699c1461014857508063371303c0146100fc576370119d061461003d575f80fd5b346100f85760203660031901126100f85760043580156100a7575f54818101809111610093577f51af157c2eee40f68107a47a49c32fbbeb0a3c9e5cd37aa56e88e6be92368a81916020915f55604051908152a1005b634e487b7160e01b5f52601160045260245ffd5b60405162461bcd60e51b815260206004820152602360248201527f696e6342793a20696e6372656d656e742073686f756c6420626520706f73697460448201526269766560e81b6064820152608490fd5b5f80fd5b346100f8575f3660031901126100f8575f545f198114610093576001015f557f51af157c2eee40f68107a47a49c32fbbeb0a3c9e5cd37aa56e88e6be92368a81602060405160018152a1005b346100f8575f3660031901126100f8576020905f548152f3fea2646970667358221220d89b4c64992f6507b8532afac8fca3c75c2ef9c820fbff6bd9552d6e7ccb96fe64736f6c634300081c0033","linkReferences":{}},"methodIdentifiers":{"inc()":"371303c0","incBy(uint256)":"70119d06","x()":"0c55699c"},"id":0}